8=FIX.4.2|9=225|35=8|49=EXECUTOR|56=CLIENT1|34=5|52=20231027-15:49:00.600|11=12345|37=54321|17=2|20=0|39=0|150=0|55=AAPL|54=1|38=100|40=2|44=150.5|151=100|14=0|6=150.5|60=20231027-15:49:00.123|10=200|