8=FIX.4.2|9=200|35=8|49=EXECUTOR|56=CLIENT1|34=2|52=20231027-15:46:00.500|11=12345|37=54321|17=1|20=0|39=2|55=AAPL|54=1|38=100|40=2|44=150.5|32=100|31=150.5|151=0|14=100|6=150.5|10=056|