8=FIX.4.2|9=12|35=A|49=CLIENT|56=SERVER|10=123|