8=FIX.4.2|9=176|35=D|11=12345|55=AAPL|54=1|60=20231027-15:45:00.123|38=100|40=2|44=150.5|59=0|10=128|