8=FIX.4.2|9=123|35=F|49=CLIENT1|56=EXECUTOR|34=3|52=20231027-15:47:00.789|11=12345|41=54321|55=AAPL|54=1|60=20231027-15:47:00.789|10=211|