8=FIX.4.2|9=120|35=H|49=CLIENT1|56=EXECUTOR|34=4|52=20231027-15:48:00.123|11=12345|55=AAPL|54=1|10=129|